:100000000C94EB000C9413010C9413010C94130149
:100010000C9413010C9413010C9413010C94130110
:100020000C9413010C9413010C94C0040C9432052D
:100030000C9413010C9413010C9413010C941301F0
:100040000C9413010C9413010C9413010C941301E0
:100050000C9413010C9413010C9413010C9476046A
:100060000C9413010C9413010C9413010C941301C0
:100070000C9413010C9413010C9413010C941301B0
:100080000C9413010C9413010C9413010C941301A0
:100090000C9413010C9413010C9413010C94130190
:1000A0000C9413010C9413010C9413016F01720151
:1000B000610165016B0193019301930176017A015E
:1000C0007E018401880193018E01080B0002020267
:1000D00001000904000001020200000524001001D3
:1000E0000524010101042402060524060001070578
:1000F000810310004009040100020A000000070506
:1001000002024000000705830240000012010002C5
:10011000EF02014041234180000101020301040379
:100120000904120100020000004041234180000147
:100130000102030141726475696E6F204C4C4300EB
:1001400041726475696E6F2059756E000000000081
:10015000240027002A002D003000000000002500A8
:1001600028002B002E003100000000002300260094
:1001700029002C002F0004040404040304050202D7
:100180000202040302020202060606060606040430
:1001900002020204040408020110408040102040C2
:1001A000804080080204018040201002011080106D
:1001B000204040200000000200090F00000304015D
:1001C000000C000000000000000000000000000023
:1001D00000000000BF0711241FBECFEFDAE0DEBF32
:1001E000CDBF21E0A4E2B1E001C01D92A43FB2075F
:1001F000E1F711E0A0E0B1E0EEEAF2E102C0059023
:100200000D92A432B107D9F710E0CBEED0E004C0D4
:100210002197FE010E944A09CA3ED107C9F70E94F0
:1002200020080C9455090C940000209143012111E1
:1002300003C08FEF9FEF08955FB7F89422E02093FB
:10024000E9002091F20030E01216130614F421E0C8
:1002500030E0422FFC0184E6415038F0289880932A
:1002600042019091F1009193F7CF2115310521F0D2
:100270008091F200882319F05FBFC90108958BE6D1
:100280008093E800F9CF80913A0181110DC082E09E
:100290008093360184E080933701109239011092E7
:1002A000380181E080933A0186E391E0089590E07F
:1002B000FC013197EF30F105B0F5EA5AFF4F0C948D
:1002C0004A09809180008F7703C0809180008F7DE4
:1002D00080938000089580918000877FF9CF84B556
:1002E0008F7702C084B58F7D84BD08958091900082
:1002F0008F7707C0809190008F7D03C08091900020
:10030000877F8093900008958091C0008F7703C00D
:100310008091C0008F7D8093C00008958091C200BD
:10032000877F8093C2000895CF93DF93282F30E01A
:10033000F901EC54FE4F8491F901EB56FE4FD49134
:10034000F901EA58FE4FC491CC2391F081110E942B
:100350005701EC2FF0E0EE0FFF1FE859FE4FA5917B
:10036000B491EC91ED2381E090E021F480E002C0B3
:1003700080E090E0DF91CF9108951F93CF93DF93BA
:10038000282F30E0F901EC54FE4F8491F901EB562F
:10039000FE4FD491F901EA58FE4FC491CC23C1F02D
:1003A000162F81110E945701EC2FF0E0EE0FFF1F76
:1003B000E65AFE4FA591B4919FB7F894111104C06D
:1003C0008C91D095D82302C0EC91DE2BDC939FBF9B
:1003D000DF91CF911F910895CF93DF9390E0FC01BF
:1003E000EB56FE4F2491FC01EA58FE4F849188237E
:1003F00061F190E0880F991FFC01E45BFE4FC5910D
:10040000D491FC01E65AFE4FA591B491611109C047
:100410009FB7F8948881209582238883EC912E23BE
:100420000BC0623061F49FB7F8948881322F309509
:1004300083238883EC912E2B2C939FBF06C08FB70C
:10044000F894E8812E2B28838FBFDF91CF910895F8
:100450003FB7F8948091320190913301A09134011B
:10046000B091350126B5A89B05C02F3F19F0019624
:10047000A11DB11D3FBFBA2FA92F982F8827820F2A
:10048000911DA11DB11DBC01CD0142E0660F771F7A
:10049000881F991F4A95D1F70895CF92DF92EF9266
:1004A000FF920E9428026B017C010E942802DC015D
:1004B000CB018C199D09AE09BF09883E9340A10567
:1004C000B10598F3FF90EF90DF90CF9008954091A1
:1004D00027015091280120912501309126014217D2
:1004E0005307B4F49091E8009570E1F39091E8001F
:1004F00092FD19C08093F10080912701909128010D
:1005000001968F739927892B19F48EEF8093E80059
:100510008091270190912801019690932801809362
:10052000270181E0089580E00895DF92EF92FF9225
:100530000F931F93CF93DF93D82E8A017B01E40E94
:10054000F51EEB01CE15DF0571F0D7FE03C0FE01ED
:10055000849101C088810E94670221968111F2CFA7
:100560008FEF9FEF01C0C801DF91CF911F910F91D5
:10057000FF90EF90DF9008950F931F93CF93DF9339
:100580001F92CDB7DEB782E0898342E450E06AEC87
:1005900070E080E80E9495020E944301DC011296FF
:1005A0000D911C9113970115110589F0D801ED915A
:1005B000FC910280F381E02DBE016F5F7F4FC80187
:1005C000099597FD04C0F80100851185ECCF89815C
:1005D0000F90DF91CF911F910F910895615030F0EE
:1005E0002091F100FC0120830196F8CF289884E641
:1005F000809342010895CF92DF92EF92FF920F9382
:100600001F93CF93DF936C017A018B01C0E0D0E0A0
:10061000CE15DF0581F0D8016D918D01D601ED91E8
:10062000FC910190F081E02DC6010995892B11F014
:100630002196EECF7E01C701DF91CF911F910F91DF
:10064000FF90EF90DF90CF9008958F929F92AF929E
:10065000BF92CF92DF92EF92FF920F931F93CF93AF
:10066000DF936C015B018A0180910B01882309F4FF
:1006700059C080914301882309F454C080912B0113
:1006800080FF05C08091E00082608093E000E80177
:100690008AEFF82E93E0E92E2FE3822E3AE3932E91
:1006A0002097C9F19FB7F894E092E9008091E800A3
:1006B00085FF06C08091F200282D281B822F01C0E3
:1006C00080E09FBF811106C0FA94FF2059F10E947B
:1006D0004D02E6CF282F30E0C217D3070CF48C2F41
:1006E0009FB7F894E092E9002091E80025FF11C03F
:1006F000282F30E0C21BD30BF501815020F041912F
:100700004093F100FACFA20EB31E8091E80085FF5E
:1007100013C09FBFC5CF5D9884E680932C0110164F
:10072000110644F081E090E0F6019383828380E03B
:1007300090E005C0C80103C09092E800EACFDF91C5
:10074000CF911F910F91FF90EF90DF90CF90BF90CE
:10075000AF909F908F900895CF93DF931F92CDB766
:10076000DEB76983DC01ED91FC910280F381E02D1D
:1007700041E050E0BE016F5F7F4F09950F90DF9120
:10078000CF91089583E08093E9008091F20088235F
:1007900019F08AE38093E8000895CF93DF931F92C6
:1007A000CDB7DEB7FC018485958597FD05C02FEF99
:1007B0003FEF358724870BC0CE0101960E941501BB
:1007C000019719F4898190E002C08FEF9FEF0F909D
:1007D000DF91CF9108950F931F93CF93DF931F92D3
:1007E000CDB7DEB78C01FC018485958597FF0EC0DF
:1007F000CE0101960E941501019719F4898190E0BC
:1008000002C08FEF9FEFF80195878487F8018485F8
:1008100095850F90DF91CF911F910F910895FC0165
:100820008485958597FD0BC09FB7F89482E08093EF
:10083000E9008091F2009FBF90E0019608959FB774
:10084000F89482E08093E9008091F2009FBF90E0ED
:100850000895CF93DF93FC01208531852230310547
:1008600079F0EC0182E090E09187808761E08281FD
:100870000E94BD0161E08881DF91CF910C94BD01A0
:10088000DF91CF910895CF93DF93FC0120853185CF
:10089000232B69F0EC011186108661E082810E94B1
:1008A000BD0160E08881DF91CF910C94BD01DF91A3
:1008B000CF910895CF93DF93FC01208531852130BE
:1008C000310579F0EC0181E090E09187808760E06C
:1008D00082810E94BD0161E08881DF91CF910C94FB
:1008E000BD01DF91CF9108950E9450091F920F9290
:1008F0000FB60F9211242F933F938F939F93AF9333
:10090000BF9380912E0190912F01A0913001B09161
:10091000310130912D0123E0230F2D3720F4019672
:10092000A11DB11D05C026E8230F0296A11DB11D12
:1009300020932D0180932E0190932F01A0933001DD
:10094000B09331018091320190913301A091340133
:10095000B09135010196A11DB11D80933201909394
:100960003301A0933401B0933501BF91AF919F91B2
:100970008F913F912F910F900FBE0F901F90189560
:100980001F920F920FB60F9211248F939F93809115
:10099000E1009091E100937F9093E10083FF0FC00D
:1009A0001092E90091E09093EB001092EC0092E33A
:1009B0009093ED001092430198E09093F00082FF35
:1009C00020C093E09093E9009091F200992319F0F0
:1009D0009AE39093E80090912C01992339F090913B
:1009E0002C01915090932C01992389F1909142010F
:1009F000992339F0909142019150909342019923AB
:100A000041F184FF10C08091E2008E7E816080936E
:100A1000E2008091E1008F7E8093E10080912B01C4
:100A20008E7E806111C080FF16C08091E2008E7EB4
:100A300080618093E2008091E1008E7E8093E100EE
:100A400080912B018E7E816080932B0104C05D9A82
:100A5000CDCF289AD6CF9F918F910F900FBE0F9038
:100A60001F9018951F920F920FB60F921124CF92DC
:100A7000DF92EF92FF920F931F932F933F934F9329
:100A80005F936F937F938F939F93AF93BF93EF93F6
:100A9000FF93CF93DF93CDB7DEB76C97DEBFCDBFAB
:100AA0001092E9008091E80083FFF9C168E0CE016F
:100AB00045960E94EE0282EF8093E8008D8987FFC1
:100AC00005C09091E80090FFFCCF03C09EEF90938B
:100AD000E800982F907609F0C5C09E894F89588DFF
:100AE0002F89188D91110CC0803829F480912A012A
:100AF0008093F10002C01092F1001092F100C8C181
:100B0000913051F48111C4C14130510509F0C0C187
:100B100080912A018D7F0BC0933061F48111B8C19F
:100B20004130510509F0B4C180912A01826080935F
:100B30002A01AEC1953049F48091E80080FFFCCFD6
:100B4000822F80688093E300A3C1963009F05DC0D6
:100B5000EB8CFC8C1092E900109228011092270176
:100B6000123091F510922601109225010E94BC02CC
:100B700099E0BE016F5F7F4FDB01E92F1D92EA957F
:100B8000E9F799831A8391E09E8390EA98879AEF18
:100B900099872091270130912801275F3F4F3C839F
:100BA0002B838D831092E900109228011092270167
:100BB000F0922601E092250149E050E080E00E9499
:100BC00095020E94BC0264C1F0922601E0922501C8
:100BD0000E944301DC011296ED90FC901397E11402
:100BE000F10409F4BFC0D701ED91FC910480F581B7
:100BF000E02DBE016B5E7F4FC7010995009709F09C
:100C0000ACC0F701E084F184EACF973009F444C125
:100C1000983021F481E08093F1003AC1993009F0D5
:100C200037C1837009F038C1EDE0F1E081E031E0D7
:100C300096E32081211109C08EE78093EA0010928B
:100C4000EA008F898093430123C18093E9003093A8
:100C5000EB0021912093EC009093ED008F5F8730A3
:100C600041F7EACF8B8D9C8D1092E90010922801FC
:100C7000109227019093260180932501898D81117F
:100C800050C08E899D89913A49F4813209F004C19E
:100C900047E050E064E071E080E0C3C0913209F0C9
:100CA000FBC0833269F48F89988DA0E0B0E0809317
:100CB000000190930101A0930201B0930301E8C0E9
:100CC000803269F48091E80082FFFCCF67E084E025
:100CD00091E00E94EE028BEF8093E80006C0823222
:100CE00009F0D6C08F8980930B0180912901811171
:100CF00003C0E0E0F8E002C0EEEFFAE0809104010A
:100D000090910501A0910601B0910701803B9440AC
:100D1000A105B10509F0A1C080910B0180FF84C03D
:100D20009CC00E944301DC0112960D911C91139707
:100D30000115110509F4B0C0D801ED91FC910190A5
:100D4000F081E02DBE016B5E7F4FC80109958111D6
:100D50009FC0F80100851185EBCF181619060CF419
:100D600097C09AC0113069F48B8D9C8D089711F44F
:100D7000109324018091240181114AC062E271E044
:100D80004CC0133009F088C08F89882309F443C010
:100D9000823029F440E86BE080E491E006C08130C5
:100DA00051F440E86BE084E391E00E946E078823F1
:100DB00009F472C06DC0833009F06EC00E94430117
:100DC000DC011296ED90FC9013978E010F5F1F4F80
:100DD0006801E114F10479F0D701ED91FC910680EE
:100DE000F781E02DB801C7010995080F111DF70122
:100DF000E084F184EECFD8011C92F601019000202E
:100E0000E9F73197BF016C197D0940E0C601CDCFEC
:100E10006CE071E002C06EE171E0FB01449150E0D2
:100E200080E80E94950234C0EE3F2AE0F20731F0DC
:100E3000808191819093FF0A8093FE0A87E797E76C
:100E4000918380839BE088E10FB6F894A895809306
:100E500060000FBE909360001BC00FB6F894A89579
:100E600080916000886180936000109260000FBEE6
:100E7000A895EE3F8AE0F80739F08091FE0A90913C
:100E8000FF0A9183808304C01092FF0A1092FE0A29
:100E90008EEF8093E80003C081E28093EB006C96B4
:100EA0000FB6F894DEBF0FBECDBFDF91CF91FF919B
:100EB000EF91BF91AF919F918F917F916F915F91D2
:100EC0004F913F912F911F910F91FF90EF90DF90E5
:100ED000CF900F900FBE0F901F901895DF92EF925A
:100EE000FF920F931F93CF93DF93D82EF92EE42E0A
:100EF000062F10E0C8010196880F0E94670283E068
:100F00000E946702CD2DDF2D0C0F1D1FC017D107CA
:100F100089F0E7FE03C0FE01849101C088810E9430
:100F20006702F82E80E00E9467028F2121968111CE
:100F3000EDCF01C081E0DF91CF911F910F91FF9024
:100F4000EF90DF900895CF93DF93EC01862F3D83E0
:100F50002C83688379835B834A8324E130E03F8379
:100F60002E831B861A8661E00E94EC0161E08A8173
:100F70000E94EC01CE01DF91CF910C942904E4E4AE
:100F8000F1E01382128288EE93E0A0E0B0E0848367
:100F90009583A683B78387E191E0918380838FEF68
:100FA0009FEF9587848723E130E046E150E068E1D8
:100FB00070E088EE91E00E94A30724E130E04CE16C
:100FC00050E06AE170E08CED91E00E94A30725E11A
:100FD00030E04EE150E060E270E080ED91E00E9490
:100FE000A30726E130E044E250E062E270E084ECE6
:100FF00091E00E94A3078CE0E4ECF1E0A4E9B1E009
:1010000001900D928A95E1F78CE0E8EEF1E0A0EA1C
:10101000B1E001900D928A95E1F78CE0E0EDF1E00E
:10102000ACEAB1E001900D928A95E1F78CE0ECED2D
:10103000F1E0A8EBB1E001900D928A95E1F70895F7
:10104000789484B5826084BD84B5816084BD85B5A3
:10105000826085BD85B5816085BD80916E008160AF
:1010600080936E0010928100809181008260809355
:101070008100809181008160809381008091800057
:1010800081608093800080919100826080939100C4
:1010900080919100816080939100809190008160A7
:1010A000809390008091C10084608093C100809102
:1010B000C10082608093C1008091C10081608093F3
:1010C000C1008091C30081608093C3008091C00003
:1010D00082608093C0008091C20081608093C200D2
:1010E00080917A00846080937A0080917A00826097
:1010F00080937A0080917A00816080937A00809159
:101100007A00806880937A001092430110922A013D
:1011100010922B018091D70081608093D70080EAE4
:101120008093D80089B5806189BD89B5826089BD09
:1011300009B400FEFDCF0E944D028091D8008F7C43
:1011400080618093D8008091E000807F8093E000F0
:101150008091E1008E7E8093E1008DE08093E2003B
:10116000559A209AEEEFFFE7859194918B3F9C4D25
:1011700019F481E0809329018FEF9FEF9093510143
:101180008093500160E089E10E94EC0160E087E11A
:101190000E94EC0160E083E20E94EC0160E085E2E5
:1011A0000E94EC0160E08FE10E94EC0160E081E2CE
:1011B0000E94EC0160E08BE10E94EC0160E08DE1B7
:1011C0000E94EC01C0E0D0E089E10E949401019707
:1011D00029F484E991E00E945A040EC087E10E943C
:1011E0009401019729F484E991E00E94430404C02A
:1011F00084E991E00E94290483E20E94940101970E
:1012000029F480EA91E00E945A040EC085E20E940F
:101210009401019729F480EA91E00E94430404C0FC
:1012200080EA91E00E9429048FE10E9494010197D5
:1012300029F488EB91E00E945A040EC081E20E94DA
:101240009401019729F488EB91E00E94430404C0C3
:1012500088EB91E00E9429048BE10E9494010197A0
:1012600029F48CEA91E00E945A040EC08DE10E949C
:101270009401019729F48CEA91E00E94430404C090
:101280008CEA91E00E942904209709F49DCF0E94E6
:1012900000009ACFEE0FFF1F0590F491E02D099406
:0E12A00081E090E0F8940C945509F894FFCF8B
:1012AE00FFFFFFFF00E100000000000000C1808191
:1012BE0000000000000000AC0325030F04CD03EB7B
:0412CE0003C2030054
:00000001FF
